{
  "contractName": "Shields",
  "abi": [
    {
      "inputs": [],
      "stateMutability": "nonpayable",
      "type": "constructor"
    },
    {
      "inputs": [],
      "name": "manager",
      "outputs": [
        {
          "internalType": "address",
          "name": "",
          "type": "address"
        }
      ],
      "stateMutability": "view",
      "type": "function",
      "constant": true
    },
    {
      "inputs": [
        {
          "internalType": "uint256",
          "name": "",
          "type": "uint256"
        }
      ],
      "name": "shields",
      "outputs": [
        {
          "internalType": "address payable",
          "name": "",
          "type": "address"
        }
      ],
      "stateMutability": "view",
      "type": "function",
      "constant": true
    },
    {
      "inputs": [
        {
          "internalType": "address payable",
          "name": "_shieldAddress",
          "type": "address"
        }
      ],
      "name": "newShield",
      "outputs": [],
      "stateMutability": "nonpayable",
      "type": "function"
    },
    {
      "inputs": [],
      "name": "getShields",
      "outputs": [
        {
          "internalType": "address payable[]",
          "name": "",
          "type": "address[]"
        }
      ],
      "stateMutability": "view",
      "type": "function",
      "constant": true
    },
    {
      "inputs": [
        {
          "internalType": "uint256",
          "name": "_shieldIndex",
          "type": "uint256"
        }
      ],
      "name": "deleteShield",
      "outputs": [],
      "stateMutability": "nonpayable",
      "type": "function"
    }
  ],
  "bytecode": "0x608060405234801561001057600080fd5b50336000806101000a81548173ffffffffffffffffffffffffffffffffffffffff021916908373ffffffffffffffffffffffffffffffffffffffff16021790555061046f806100606000396000f3fe608060405234801561001057600080fd5b50600436106100575760003560e01c806308abe9571461005c578063282d2202146100bb578063481c6a75146100e95780639969497614610133578063f862ab1b14610177575b600080fd5b6100646101e5565b6040518080602001828103825283818151815260200191508051906020019060200280838360005b838110156100a757808201518184015260208101905061008c565b505050509050019250505060405180910390f35b6100e7600480360360208110156100d157600080fd5b8101908080359060200190929190505050610273565b005b6100f1610372565b604051808273ffffffffffffffffffffffffffffffffffffffff1673ffffffffffffffffffffffffffffffffffffffff16815260200191505060405180910390f35b6101756004803603602081101561014957600080fd5b81019080803573ffffffffffffffffffffffffffffffffffffffff169060200190929190505050610397565b005b6101a36004803603602081101561018d57600080fd5b81019080803590602001909291905050506103fd565b604051808273ffffffffffffffffffffffffffffffffffffffff1673ffffffffffffffffffffffffffffffffffffffff16815260200191505060405180910390f35b6060600180548060200260200160405190810160405280929190818152602001828054801561026957602002820191906000526020600020905b8160009054906101000a900473ffffffffffffffffffffffffffffffffffffffff1673ffffffffffffffffffffffffffffffffffffffff168152602001906001019080831161021f575b5050505050905090565b6000809054906101000a900473ffffffffffffffffffffffffffffffffffffffff1673ffffffffffffffffffffffffffffffffffffffff163373ffffffffffffffffffffffffffffffffffffffff1614610335576040517f08c379a00000000000000000000000000000000000000000000000000000000081526004018080602001828103825260168152602001807f596f7520617265206e6f7420617574686f72697a65640000000000000000000081525060200191505060405180910390fd5b6001818154811061034257fe5b9060005260206000200160006101000a81549073ffffffffffffffffffffffffffffffffffffffff021916905550565b6000809054906101000a900473ffffffffffffffffffffffffffffffffffffffff1681565b6001819080600181540180825580915050600190039060005260206000200160009091909190916101000a81548173ffffffffffffffffffffffffffffffffffffffff021916908373ffffffffffffffffffffffffffffffffffffffff16021790555050565b6001818154811061040a57fe5b906000526020600020016000915054906101000a900473ffffffffffffffffffffffffffffffffffffffff168156fea2646970667358221220553633ff5712a6b352140165c13054c15221115d9eeb22a1b9cb3d7605040a7364736f6c63430006000033",
  "source": "pragma solidity 0.6.0;\n\ncontract Shields {\n    address public manager;\n    address payable[] public shields;\n\n    constructor() public {\n        manager = msg.sender;\n    }\n\n    function newShield(address payable _shieldAddress) public {\n        shields.push(_shieldAddress);\n    }\n\n    function getShields() public view returns (address payable[] memory) {\n        return shields;\n    }\n\n    function deleteShield(uint256 _shieldIndex) public {\n        require(msg.sender == manager, 'You are not authorized');\n        delete shields[_shieldIndex];\n    }\n}\n",
  "sourcePath": "/Users/lol/apps/fun/shield.link/src/frontend/contracts/Shields.sol",
  "compiler": {
    "name": "solc",
    "version": "0.6.0+commit.26b70077.Emscripten.clang"
  },
  "schemaVersion": "3.2.5",
  "updatedAt": "2020-09-26T16:13:18.306Z",
  "networkType": "ethereum",
  "devdoc": {
    "methods": {}
  },
  "userdoc": {
    "methods": {}
  }
}