{
  "contractName": "ShieldFlight",
  "abi": [
    {
      "anonymous": false,
      "inputs": [
        {
          "indexed": true,
          "internalType": "bytes32",
          "name": "id",
          "type": "bytes32"
        }
      ],
      "name": "ChainlinkCancelled",
      "type": "event"
    },
    {
      "anonymous": false,
      "inputs": [
        {
          "indexed": true,
          "internalType": "bytes32",
          "name": "id",
          "type": "bytes32"
        }
      ],
      "name": "ChainlinkFulfilled",
      "type": "event"
    },
    {
      "anonymous": false,
      "inputs": [
        {
          "indexed": true,
          "internalType": "bytes32",
          "name": "id",
          "type": "bytes32"
        }
      ],
      "name": "ChainlinkRequested",
      "type": "event"
    },
    {
      "anonymous": false,
      "inputs": [
        {
          "indexed": true,
          "internalType": "address",
          "name": "previousOwner",
          "type": "address"
        },
        {
          "indexed": true,
          "internalType": "address",
          "name": "newOwner",
          "type": "address"
        }
      ],
      "name": "OwnershipTransferred",
      "type": "event"
    },
    {
      "inputs": [
        {
          "internalType": "uint256",
          "name": "",
          "type": "uint256"
        }
      ],
      "name": "insurances",
      "outputs": [
        {
          "internalType": "string",
          "name": "targetId",
          "type": "string"
        },
        {
          "internalType": "address payable",
          "name": "insuree",
          "type": "address"
        },
        {
          "internalType": "uint256",
          "name": "premium",
          "type": "uint256"
        }
      ],
      "stateMutability": "view",
      "type": "function",
      "constant": true
    },
    {
      "inputs": [],
      "name": "isOwner",
      "outputs": [
        {
          "internalType": "bool",
          "name": "",
          "type": "bool"
        }
      ],
      "stateMutability": "view",
      "type": "function",
      "constant": true
    },
    {
      "inputs": [
        {
          "internalType": "uint256",
          "name": "",
          "type": "uint256"
        }
      ],
      "name": "liquidities",
      "outputs": [
        {
          "internalType": "address payable",
          "name": "provider",
          "type": "address"
        },
        {
          "internalType": "uint256",
          "name": "amount",
          "type": "uint256"
        }
      ],
      "stateMutability": "view",
      "type": "function",
      "constant": true
    },
    {
      "inputs": [],
      "name": "owner",
      "outputs": [
        {
          "internalType": "address",
          "name": "",
          "type": "address"
        }
      ],
      "stateMutability": "view",
      "type": "function",
      "constant": true
    },
    {
      "inputs": [
        {
          "internalType": "address",
          "name": "newOwner",
          "type": "address"
        }
      ],
      "name": "transferOwnership",
      "outputs": [],
      "stateMutability": "nonpayable",
      "type": "function"
    },
    {
      "inputs": [
        {
          "internalType": "string",
          "name": "_targetId",
          "type": "string"
        }
      ],
      "name": "buyInsurance",
      "outputs": [],
      "stateMutability": "payable",
      "type": "function",
      "payable": true
    },
    {
      "inputs": [],
      "name": "provideLiquidity",
      "outputs": [],
      "stateMutability": "payable",
      "type": "function",
      "payable": true
    },
    {
      "inputs": [],
      "name": "getYieldReward",
      "outputs": [],
      "stateMutability": "nonpayable",
      "type": "function"
    },
    {
      "inputs": [
        {
          "internalType": "string",
          "name": "_targetId",
          "type": "string"
        }
      ],
      "name": "checkStatus",
      "outputs": [
        {
          "internalType": "bytes32",
          "name": "requestId",
          "type": "bytes32"
        }
      ],
      "stateMutability": "nonpayable",
      "type": "function"
    },
    {
      "inputs": [
        {
          "internalType": "bytes32",
          "name": "_requestId",
          "type": "bytes32"
        },
        {
          "internalType": "uint256",
          "name": "_score",
          "type": "uint256"
        }
      ],
      "name": "compensate",
      "outputs": [],
      "stateMutability": "nonpayable",
      "type": "function"
    }
  ],
  "bytecode": "0x608060405260016004556103e860075533600660006101000a81548173ffffffffffffffffffffffffffffffffffffffff021916908373ffffffffffffffffffffffffffffffffffffffff160217905550600660009054906101000a900473ffffffffffffffffffffffffffffffffffffffff1673ffffffffffffffffffffffffffffffffffffffff16600073ffffffffffffffffffffffffffffffffffffffff167f8be0079c531659141344cd1fd0a4f28419497f9722a3daafe3b4186f6b6457e060405160405180910390a36119e6806100dc6000396000f3fe6080604052600436106100915760003560e01c80636ea21ad6116100595780636ea21ad6146103035780638da5cb5b146103be5780638f32d59b14610415578063eb6b721714610444578063f2fde38b1461048957610091565b80630713051d1461009657806344b0a99514610118578063552b081c146101f457806359fb49f91461020b57806360c97b22146102f9575b600080fd5b3480156100a257600080fd5b506100cf600480360360208110156100b957600080fd5b81019080803590602001909291905050506104da565b604051808373ffffffffffffffffffffffffffffffffffffffff1673ffffffffffffffffffffffffffffffffffffffff1681526020018281526020019250505060405180910390f35b34801561012457600080fd5b506101de6004803603602081101561013b57600080fd5b810190808035906020019064010000000081111561015857600080fd5b82018360208201111561016a57600080fd5b8035906020019184600183028401116401000000008311171561018c57600080fd5b91908080601f016020809104026020016040519081016040528093929190818152602001838380828437600081840152601f19601f82011690508083019250505050505050919291929050505061052b565b6040518082815260200191505060405180910390f35b34801561020057600080fd5b5061020961069b565b005b34801561021757600080fd5b506102446004803603602081101561022e57600080fd5b810190808035906020019092919050505061069d565b60405180806020018473ffffffffffffffffffffffffffffffffffffffff1673ffffffffffffffffffffffffffffffffffffffff168152602001838152602001828103825285818151815260200191508051906020019080838360005b838110156102bc5780820151818401526020810190506102a1565b50505050905090810190601f1680156102e95780820380516001836020036101000a031916815260200191505b5094505050505060405180910390f35b61030161078c565b005b6103bc6004803603602081101561031957600080fd5b810190808035906020019064010000000081111561033657600080fd5b82018360208201111561034857600080fd5b8035906020019184600183028401116401000000008311171561036a57600080fd5b91908080601f016020809104026020016040519081016040528093929190818152602001838380828437600081840152601f19601f8201169050808301925050505050505091929192905050506108ae565b005b3480156103ca57600080fd5b506103d36109f4565b604051808273ffffffffffffffffffffffffffffffffffffffff1673ffffffffffffffffffffffffffffffffffffffff16815260200191505060405180910390f35b34801561042157600080fd5b5061042a610a1e565b604051808215151515815260200191505060405180910390f35b34801561045057600080fd5b506104876004803603604081101561046757600080fd5b810190808035906020019092919080359060200190929190505050610a76565b005b34801561049557600080fd5b506104d8600480360360208110156104ac57600080fd5b81019080803573ffffffffffffffffffffffffffffffffffffffff169060200190929190505050610b96565b005b600981815481106104e757fe5b90600052602060002090600202016000915090508060000160009054906101000a900473ffffffffffffffffffffffffffffffffffffffff16908060010154905082565b600060606040518060400160405280601b81526020017f68747470733a2f2f6170692e666c6967687473746174732e636f6d0000000000815250836040516020018083805190602001908083835b6020831061059c5780518252602082019150602081019050602083039250610579565b6001836020036101000a038019825116818451168082178552505050505050905001807f3f7461726765743d00000000000000000000000000000000000000000000000081525060080182805190602001908083835b6020831061061557805182526020820191506020810190506020830392506105f2565b6001836020036101000a038019825116818451168082178552505050505050905001925050506040516020818303038152906040529050610693816040518060400160405280600681526020017f737461747573000000000000000000000000000000000000000000000000000081525063eb6b721760e01b610c1c565b915050919050565b565b600881815481106106aa57fe5b9060005260206000209060030201600091509050806000018054600181600116156101000203166002900480601f0160208091040260200160405190810160405280929190818152602001828054600181600116156101000203166002900480156107565780601f1061072b57610100808354040283529160200191610756565b820191906000526020600020905b81548152906001019060200180831161073957829003601f168201915b5050505050908060010160009054906101000a900473ffffffffffffffffffffffffffffffffffffffff16908060020154905083565b6000341015610803576040517f08c379a000000000000000000000000000000000000000000000000000000000815260040180806020018281038252601c8152602001807f506c6561736520656e74657220612070726f70657220616d6f756e740000000081525060200191505060405180910390fd5b600960405180604001604052803373ffffffffffffffffffffffffffffffffffffffff16815260200134815250908060018154018082558091505060019003906000526020600020906002020160009091909190915060008201518160000160006101000a81548173ffffffffffffffffffffffffffffffffffffffff021916908373ffffffffffffffffffffffffffffffffffffffff160217905550602082015181600101555050565b6000341015610925576040517f08c379a000000000000000000000000000000000000000000000000000000000815260040180806020018281038252601d8152602001807f506c6561736520656e74657220612070726f706572207072656d69756d00000081525060200191505060405180910390fd5b600860405180606001604052808381526020013373ffffffffffffffffffffffffffffffffffffffff168152602001348152509080600181540180825580915050600190039060005260206000209060030201600090919091909150600082015181600001908051906020019061099d9291906117f9565b5060208201518160010160006101000a81548173ffffffffffffffffffffffffffffffffffffffff021916908373ffffffffffffffffffffffffffffffffffffffff16021790555060408201518160020155505050565b6000600660009054906101000a900473ffffffffffffffffffffffffffffffffffffffff16905090565b6000600660009054906101000a900473ffffffffffffffffffffffffffffffffffffffff1673ffffffffffffffffffffffffffffffffffffffff163373ffffffffffffffffffffffffffffffffffffffff1614905090565b816005600082815260200190815260200160002060009054906101000a900473ffffffffffffffffffffffffffffffffffffffff1673ffffffffffffffffffffffffffffffffffffffff163373ffffffffffffffffffffffffffffffffffffffff1614610b2e576040517f08c379a00000000000000000000000000000000000000000000000000000000081526004018080602001828103825260288152602001806119896028913960400191505060405180910390fd5b6005600082815260200190815260200160002060006101000a81549073ffffffffffffffffffffffffffffffffffffffff0219169055807f7cc135e0cebb02c3480ae5d74d377283180a2601f8f644edf7987b009316c63a60405160405180910390a2505050565b610b9e610a1e565b610c10576040517f08c379a00000000000000000000000000000000000000000000000000000000081526004018080602001828103825260208152602001807f4f776e61626c653a2063616c6c6572206973206e6f7420746865206f776e657281525060200191505060405180910390fd5b610c1981610cdf565b50565b6000610c26611879565b610c33600a543085610e25565b9050610c7f6040518060400160405280600381526020017f75726c00000000000000000000000000000000000000000000000000000000008152508683610e569092919063ffffffff16565b610cc96040518060400160405280600481526020017f70617468000000000000000000000000000000000000000000000000000000008152508583610e569092919063ffffffff16565b610cd581600b54610e89565b9150509392505050565b600073ffffffffffffffffffffffffffffffffffffffff168173ffffffffffffffffffffffffffffffffffffffff161415610d65576040517f08c379a00000000000000000000000000000000000000000000000000000000081526004018080602001828103825260268152602001806119406026913960400191505060405180910390fd5b8073ffffffffffffffffffffffffffffffffffffffff16600660009054906101000a900473ffffffffffffffffffffffffffffffffffffffff1673ffffffffffffffffffffffffffffffffffffffff167f8be0079c531659141344cd1fd0a4f28419497f9722a3daafe3b4186f6b6457e060405160405180910390a380600660006101000a81548173ffffffffffffffffffffffffffffffffffffffff021916908373ffffffffffffffffffffffffffffffffffffffff16021790555050565b610e2d611879565b610e35611879565b610e4c85858584610ec0909392919063ffffffff16565b9150509392505050565b610e6d828460800151610f7090919063ffffffff16565b610e84818460800151610f7090919063ffffffff16565b505050565b6000610eb8600360009054906101000a900473ffffffffffffffffffffffffffffffffffffffff168484610f95565b905092915050565b610ec8611879565b610ed8856080015161010061124d565b508385600001818152505082856020019073ffffffffffffffffffffffffffffffffffffffff16908173ffffffffffffffffffffffffffffffffffffffff16815250508185604001907bffffffffffffffffffffffffffffffffffffffffffffffffffffffff191690817bffffffffffffffffffffffffffffffffffffffffffffffffffffffff191681525050849050949350505050565b610f7d82600383516112a1565b610f9081836113e690919063ffffffff16565b505050565b600030600454604051602001808373ffffffffffffffffffffffffffffffffffffffff1673ffffffffffffffffffffffffffffffffffffffff1660601b815260140182815260200192505050604051602081830303815290604052805190602001209050600454836060018181525050836005600083815260200190815260200160002060006101000a81548173ffffffffffffffffffffffffffffffffffffffff021916908373ffffffffffffffffffffffffffffffffffffffff160217905550807fb5e6e01e79f91267dc17b4e6314d5d4d03593d2ceee0fbb452b750bd70ea5af960405160405180910390a2600260009054906101000a900473ffffffffffffffffffffffffffffffffffffffff1673ffffffffffffffffffffffffffffffffffffffff16634000aea085846110cd87611408565b6040518463ffffffff1660e01b8152600401808473ffffffffffffffffffffffffffffffffffffffff1673ffffffffffffffffffffffffffffffffffffffff16815260200183815260200180602001828103825283818151815260200191508051906020019080838360005b83811015611154578082015181840152602081019050611139565b50505050905090810190601f1680156111815780820380516001836020036101000a031916815260200191505b50945050505050602060405180830381600087803b1580156111a257600080fd5b505af11580156111b6573d6000803e3d6000fd5b505050506040513d60208110156111cc57600080fd5b8101908080519060200190929190505050611232576040517f08c379a00000000000000000000000000000000000000000000000000000000081526004018080602001828103825260238152602001806119666023913960400191505060405180910390fd5b60016004600082825401925050819055508090509392505050565b6112556118e6565b60006020838161126157fe5b061461127a576020828161127157fe5b06602003820191505b81836020018181525050604051808452600081528281016020016040525082905092915050565b601781116112ce576112c88160058460ff16901b60ff16178461160f90919063ffffffff16565b506113e1565b60ff8111611310576112f3601860058460ff16901b178461160f90919063ffffffff16565b5061130a8160018561162f9092919063ffffffff16565b506113e0565b61ffff811161135357611336601960058460ff16901b178461160f90919063ffffffff16565b5061134d8160028561162f9092919063ffffffff16565b506113df565b63ffffffff81116113985761137b601a60058460ff16901b178461160f90919063ffffffff16565b506113928160048561162f9092919063ffffffff16565b506113de565b67ffffffffffffffff81116113dd576113c4601b60058460ff16901b178461160f90919063ffffffff16565b506113db8160088561162f9092919063ffffffff16565b505b5b5b5b5b505050565b6113ee6118e6565b61140083846000015151848551611651565b905092915050565b6060600360009054906101000a900473ffffffffffffffffffffffffffffffffffffffff1673ffffffffffffffffffffffffffffffffffffffff166340429946905060e01b60008084600001518560200151866040015187606001516001896080015160000151604051602401808973ffffffffffffffffffffffffffffffffffffffff1673ffffffffffffffffffffffffffffffffffffffff1681526020018881526020018781526020018673ffffffffffffffffffffffffffffffffffffffff1673ffffffffffffffffffffffffffffffffffffffff168152602001857bffffffffffffffffffffffffffffffffffffffffffffffffffffffff19167bffffffffffffffffffffffffffffffffffffffffffffffffffffffff1916815260200184815260200183815260200180602001828103825283818151815260200191508051906020019080838360005b83811015611572578082015181840152602081019050611557565b50505050905090810190601f16801561159f5780820380516001836020036101000a031916815260200191505b509950505050505050505050604051602081830303815290604052907bffffffffffffffffffffffffffffffffffffffffffffffffffffffff19166020820180517bffffffffffffffffffffffffffffffffffffffffffffffffffffffff83818316178352505050509050919050565b6116176118e6565b611627838460000151518461170a565b905092915050565b6116376118e6565b611648848560000151518585611758565b90509392505050565b6116596118e6565b825182111561166757600080fd5b846020015182850111156116925761169185600261168b88602001518887016117b9565b026117d5565b5b6000808651805187602083010193508088870111156116b15787860182525b60208701925050505b602084106116dd57805182526020820191506020810190506020840393506116ba565b60006001856020036101000a03905080198251168184511681811785525050879350505050949350505050565b6117126118e6565b8360200151831061172f5761172e8460028660200151026117d5565b5b835180516020858301018481538186141561174b576001820183525b5050508390509392505050565b6117606118e6565b8460200151848301111561177e5761177d856002868501026117d5565b5b60006001836101000a03905085518386820101858319825116178152815185880111156117ab5784870182525b505085915050949350505050565b6000818311156117cb578290506117cf565b8190505b92915050565b6060826000015190506117e8838361124d565b506117f383826113e6565b50505050565b828054600181600116156101000203166002900490600052602060002090601f016020900481019282601f1061183a57805160ff1916838001178555611868565b82800160010185558215611868579182015b8281111561186757825182559160200191906001019061184c565b5b5090506118759190611900565b5090565b6040518060a0016040528060008019168152602001600073ffffffffffffffffffffffffffffffffffffffff16815260200160007bffffffffffffffffffffffffffffffffffffffffffffffffffffffff19168152602001600081526020016118e0611925565b81525090565b604051806040016040528060608152602001600081525090565b61192291905b8082111561191e576000816000905550600101611906565b5090565b90565b60405180604001604052806060815260200160008152509056fe4f776e61626c653a206e6577206f776e657220697320746865207a65726f2061646472657373756e61626c6520746f207472616e73666572416e6443616c6c20746f206f7261636c65536f75726365206d75737420626520746865206f7261636c65206f66207468652072657175657374a2646970667358221220f66907af79c3deb9acdb6d6bbd2f584314e3ccb6b22c5c47df7e7cc49981a35e64736f6c63430006000033",
  "source": "pragma solidity 0.6.0;\n\nimport '@chainlink/contracts/src/v0.6/ChainlinkClient.sol';\nimport '@chainlink/contracts/src/v0.6/vendor/Ownable.sol';\n\n/**\n * @title Insurance contract implementing EIP 3142\n */\ncontract ShieldFlight is ChainlinkClient, Ownable {\n    bytes32 private constant JOB_ID = '4ce9b71a1ac94abcad1ff9198e760b8c';\n    address private constant ORACLE = 0x7AFe1118Ea78C1eae84ca8feE5C65Bc76CcF879e;\n    string private constant GET_TARGET_STATUS_URL = 'https://api.flightstats.com';\n    int256 compensationPercentage = 1000;\n\n    struct Insurance {\n        string targetId;\n        address payable insuree;\n        uint256 premium;\n    }\n\n    struct Liquidity {\n        address payable provider;\n        uint256 amount;\n    }\n\n    Insurance[] public insurances;\n    Liquidity[] public liquidities;\n    bytes32 jobId;\n    uint256 payment;\n\n    // constructor(\n    //     address _link,\n    //     address _oracle,\n    //     bytes32 _jobId\n    // ) public {\n    //     if (_link == address(0)) {\n    //         setPublicChainlinkToken();\n    //         setChainlinkOracle(ORACLE);\n    //         jobId = JOB_ID;\n    //         payment = 1 * LINK;\n    //     } else {\n    //         setChainlinkToken(_link);\n    //         setChainlinkOracle(_oracle);\n    //         jobId = _jobId;\n    //         payment = 1;\n    //     }\n    // }\n\n    function buyInsurance(string memory _targetId) public payable {\n        require(msg.value >= 0, 'Please enter a proper premium');\n        insurances.push(Insurance(_targetId, msg.sender, msg.value));\n    }\n\n    function provideLiquidity() public payable {\n        require(msg.value >= 0, 'Please enter a proper amount');\n        liquidities.push(Liquidity(msg.sender, msg.value));\n    }\n\n    function getYieldReward() public {\n        // todo\n    }\n\n    function checkStatus(string memory _targetId) public returns (bytes32 requestId) {\n        string memory _url = string(abi.encodePacked(GET_TARGET_STATUS_URL, '?target=', _targetId));\n\n        requestId = createRequestTo(_url, 'status', this.compensate.selector);\n    }\n\n    function compensate(bytes32 _requestId, uint256 _score) public recordChainlinkFulfillment(_requestId) {}\n\n    function createRequestTo(\n        string memory _url,\n        string memory _path,\n        bytes4 _callbackFn\n    ) private returns (bytes32 requestId) {\n        Chainlink.Request memory req = buildChainlinkRequest(jobId, address(this), _callbackFn);\n        req.add('url', _url);\n        req.add('path', _path);\n        requestId = sendChainlinkRequest(req, payment);\n    }\n}\n",
  "sourcePath": "/Users/lol/apps/fun/shield.link/src/frontend/contracts/ShieldFlight.sol",
  "compiler": {
    "name": "solc",
    "version": "0.6.0+commit.26b70077.Emscripten.clang"
  },
  "schemaVersion": "3.2.5",
  "updatedAt": "2020-09-27T23:12:33.552Z",
  "networkType": "ethereum",
  "devdoc": {
    "methods": {
      "isOwner()": {
        "details": "Returns true if the caller is the current owner."
      },
      "owner()": {
        "details": "Returns the address of the current owner."
      },
      "transferOwnership(address)": {
        "details": "Transfers ownership of the contract to a new account (`newOwner`). Can only be called by the current owner."
      }
    },
    "title": "Insurance contract implementing EIP 3142"
  },
  "userdoc": {
    "methods": {}
  }
}